:1000000020C500003BC5000039C500000C94C7277F
:1000100035C5000033C5000031C500002FC5000004
:100020002DC500002BC500000C942A100C946D14F3
:100030000C94B82123C5000021C500001FC5000095
:100040001DC500001BC5000019C5000017C5000034
:1000500015C500000C94121111C500000FC5000059
:100060000DC500000BC5000009C5000007C5000054
:1000700005C5000003C5000001C50000FFC4000065
:10008000FDC40000FBC40000F9C40000F7C4000078
:10009000F5C40000F3C40000F1C40000EFC4000088
:1000A000EDC40000EBC40000E9C4000029001E00FC
:1000B0001F002000210022002B0014001A0008005D
:1000C00015001700E00004001600070009000A44AC
:1000D00063521D001B00060019000500E3000057D5
:1000E00035022A412C22AE004C00270026002500B4
:1000F000240023002302130012000C0018001C002F
:10010000320033000F000E000D000B0035423800A6
:1001100037003600100011004D004A0034342A0028
:100120001E7C737C29003A003B003C003D003E00F1
:100130002B0031005400550026022702E0002D025A
:10014000560057002F00300085003700350034007E
:1001500033002E00E30000574C0001002C22B200B7
:10016000440043004200410040003F0045004B0076
:1001700024021E022502230237024E002D02220213
:100180003302210236028500370038021F022002A6
:100190004D004A004C002A001E7CB20029003A00A3
:1001A0003B003C003D003E002B0031005400550058
:1001B00026022702E0002D02560057002F003000D3
:1001C000850037003500340033002E00E30000576F
:1001D0004C002A002C22B20044004300420041009F
:1001E00040003F0045004B0024021E02250223026E
:1001F00037024E002D022202330221023602850010
:10020000370038021F0220024D004A004C00010056
:100210001E7CB2002900AE00AC00AB000000000064
:100220002B0000000000520000000000E000000071
:10023000500051004F00000001001D001B0006008F
:1002400019000000E30000574C002A412C22B200A4
:10025000AE0000000000000000006500AB000000E0
:100260000000520000000000AC0000004F005100F0
:10027000500000000100000000000000000000002D
:100280004D004A004C002A421E7CB20029000100A9
:1002900001000100010001002B000100010001002C
:1002A00001000100E0000100010001000100010067
:1002B000010001000100010001000100E3000057FE
:1002C0004C002A002C22B20001000100560055000B
:1002D00054005300350001005700610060005F00CA
:1002E0003502010067005E005D005C003402010021
:1002F00037005B005A0059000100360062002A00F6
:100300001E7CB20000DA0281FFD9F1DB20A4A62E08
:10031000AF00A0C0D30000A1C8D30000AED580A814
:100320001F408D14200007087F0807003E5B4F5BCD
:100330003E003E6B4F6B3E001C3E7C3E1C00183C5A
:100340007E3C18001C577D571C001C5E7F5E1C0005
:1003500000183C180000FFE7C3E7FF00001824184E
:100360000000FFE7DBE7FF0030483A060E002629D1
:1003700079292600407F05050700407F05253F00BD
:100380005A3CE73C5A007F3E1C1C0800081C1C3EDF
:100390007F0014227F2214005F5F005F5F00060968
:1003A0007F017F00006689956A0060606060600080
:1003B00094A2FFA2940008047E04080010207E206E
:1003C000100008082A1C0800081C2A0808001E1033
:1003D000101010000C1E0C1E0C00003E414040404E
:1003E0003E010101413E00000000000000005F00EE
:1003F0000000000700070000147F147F1400242A67
:100400007F2A1200231308646200364956205000E8
:10041000000807030000001C224100000041221CCC
:1004200000002A1C7F1C2A0008083E0808000080E3
:100430007030000008080808080000006060000034
:100440002010080402003E5149453E0000427F4012
:1004500000007249494946002141494D33001814B2
:10046000127F10002745454539003C4A4949310073
:1004700041211109070036494949360046494929B1
:100480001E000000140000000040340000000008BE
:1004900014224100141414141400004141417F41FE
:1004A0004141412214083E415D594E007C12111217
:1004B0007C007F49494936003E41414122007F414D
:1004C00041413E007F49494941007F090909010036
:1004D0003E41415173007F0808087F0000417F4181
:1004E00000002040413F01007F08142241007F406E
:1004F000404040007F021C027F007F0408107F0004
:100500003E4141413E007F09090906003E4151211B
:100510005E007F0919294600264949493200030136
:100520007F0103003F4040403F001F2040201F004C
:100530003F4038403F00631408146300030478040C
:1005400003006159494D4300007F414141000204CD
:1005500008102000004141417F00004141416151AC
:1005600049454341414100030708000020545478A5
:1005700040007F284444380038444444280038442C
:1005800044287F0038545454180000087E090200A3
:1005900018A4A49C78007F080404780000447D40DF
:1005A00000002040403D00007F1028440000004132
:1005B0007F4000007C04780478007C080404780004
:1005C000384444443800FC18242418001824241803
:1005D000FC007C080404080048545454240004041B
:1005E0003F4424003C4040207C001C2040201C0054
:1005F0003C4030403C004428102844004C909090EF
:100600007C004464544C4400000836410000000063
:1006100077000000004136080000000808080808BC
:1006200008080808087F000000000000404040F073
:10063000F8F8FF38FFF8F83FF8F8FF38FFF8F8F05F
:1006400040404000000000000080C0C0C0800000AA
:10065000C0C08000000080C0C000C0C0000080C0DA
:10066000C00000000000C0C0C0C0C000C0C000008A
:10067000000000000000000000000000000000007A
:10068000000000000000000000000000000000006A
:10069000000000000000000000000000000000005A
:1006A000000000000004021D0204000404150A04F6
:1006B00000040817080400040A1504040080C0E0C0
:1006C0007E5B4F5BFEC00000C000DCD7DEDEDED705
:1006D000DC00C000000000000000004141417F41FB
:1006E000414141221408000000000000494949FF2F
:1006F000FFFFFFE0DFBFBF00BFBFDFE0FFFFFFFF87
:1007000049494900000000001F3F6060E0BF1F0032
:100710007F7F071E381E077F7F007F7F0E1F3B7184
:100720006000000000007F7F0C0C0C007E7E007FCC
:100730007E0303007F7E03037E7E03037F7E000F24
:100740003E703C063C703E0F00327B49493F7E00C4
:100750007F7E0303001E3F69696F260000000000D2
:100760000000000000000000000000000000000089
:10077000000000000000000000000000307B7F78D7
:1007800030202030787F3B0003000F7F0F0F0F7F5A
:100790000F0003000000000000000008080808081F
:1007A00008080808087F0000000000000101010798
:1007B0000F0F7F0F7F0F0F7E0F0F7F0F7F0F0F0722
:1007C00001010100003C4291A5A1A1A591423C007C
:1007D000000000000000264932007F117F007F04E6
:1007E00008107F00017F01007F117F00017F010061
:1007F0007F41417F00000000000000000000000079
:1008000000000000000000000000000000000000E8
:1008100000000000000000000000000000000000D8
:1008200000000000000000000000000000000000C8
:10083000000000000000007E010101010101010132
:10084000017E003E41414141414141414141007FE2
:1008500001010101010101010101003E414141414C
:1008600041414141413E00AF00AEC5C600DEDF0060
:10087000D8D9007E7F00DADB005E5F00DCDD003E61
:100880003F0095009600970098001E1F000A002D5B
:100890002D2D2D2D004350534C4B002D2D2D2D2D46
:1008A00000556E6465660034204E554D0033204D72
:1008B0004F56003220414C54003120414C540030FE
:1008C00020545950002D2D2D2D2D000A0005010911
:1008D00002A10185020901A10005091901290815D4
:1008E00000250195087501810205010930093115BE
:1008F00081257F95027508810609381581257F9528
:100900000175088106050C0A38021581257F9501BD
:1009100075088106C0C005010980A1018503190180
:100920002AB700150126B700950175108100C00592
:100930000C0901A101850419012AA002150126A0B4
:1009400002950175108100C005010906A101850607
:10095000050719E029E715002501950875018102B1
:100960000507190029EF1500250195F07501810291
:100970000508190129059505750191029501750371
:100980009101C005010906A101050719E029E71534
:100990000025019508750181029501750881010501
:1009A00007190029FF150026FF009506750881002C
:1009B0000508190129051500250195057501910204
:1009C000950175039101C009023B00020100A0FAE4
:1009D00009040000010301010009211101000122A5
:1009E0004400070581030800010904010001030018
:1009F000000009211101000122B600070582032031
:100A00000001120100020000000832FC8702010010
:100A1000010200010C0353006F0066006C006500CA
:100A200000001A034A006F00730065006600410071
:100A3000640061006D00630069006B000000040346
:100A4000090411241FBECFEFDAE0DEBFCDBF11E0F5
:100A5000A0E0B1E0E8E4F3E502C005900D92AE3B02
:100A6000B107D9F725E0AEEBB1E001C01D92AD357D
:100A7000B207E1F70E94E1210C94A229C1CA482FD4
:100A8000209159059091200557E0291302C080E07C
:100A9000089530E0529FF001539FF00D1124EF5D57
:100AA000FA4F8181681306C08081481303C0858195
:100AB0008111EECF2F5F3F4F2770E7CFE8EDF0E0D9
:100AC00080818E7F80831092E2001092DA00109273
:100AD000E100A0EEB0E08C9181608C9380818F77F3
:100AE000808319BCA7EDB0E08C918E7F8C938081C0
:100AF0008F7E808310920B0508952091E400309141
:100B0000E50085E69091EC0090FF06C09091E8002A
:100B100090FF06C080E008959091E80092FDFACF22
:100B200090911605992391F0953091F09091EB00FA
:100B300095FD10C04091E4005091E5002417350761
:100B400009F381509A01F1F684E0089582E0089556
:100B500083E0089581E008958091180587FF13C010
:100B60008091E80082FF06C08091E8008B77809337
:100B7000E80004C0809116058111F2CF089580919C
:100B800016058823D9F38091E80080FFF8CF809183
:100B9000E8008E77ECCF982F9093E900242F762FE2
:100BA00050E0891731F07091EC002091ED005091E8
:100BB000F00021FD07C09F5F973071F78093E90037
:100BC00081E008953091EB003E7F3093EB0030914F
:100BD000ED003D7F3093ED003091EB0031603093BC
:100BE000EB007093EC002093ED005093F000209107
:100BF000EE0027FDE0CF80E00895B0E0A0E0E3E064
:100C0000F6E00C94F628C8EDD0E088818F7E8883CA
:100C1000E7EDF0E080818160808384E082BF81E045
:100C200080930B0588818E7F888302EE10E0F801A7
:100C300010821092DA0081EEC82ED12CF6011082BB
:100C400088818F77888388818068888388818F7D79
:100C5000888319BC1092160510921705109215057D
:100C60001092140590EEE92EF12CF70180818B7F14
:100C7000808388818160888342E060E080E08BDF50
:100C8000F60180818E7F8083F8018081816080837E
:100C9000808188608083F70180818E7F8083888156
:100CA00080618883CDB7DEB7E8E00C941229FC019F
:100CB00080911E0590911F0586179707A0F061157A
:100CC000710529F49091E8009E779093E80090E0F8
:100CD0006115710551F4911108C08091E80082FFFF
:100CE00035C080E00895BC01F2CF809116058823BD
:100CF000C9F18530C9F18091E80083FD31C0809150
:100D0000E80082FDEACF8091E80080FFE1CF2091EA
:100D1000F3008091F200322F282F6115710519F030
:100D20002830310558F091E02830310509F090E085
:100D30002091E8002E772093E800CACF819180931C
:100D4000F100615071092F5F3F4FE7CF8091160589
:100D5000882341F0853041F08091E80083FFBDCFCA
:100D600081E0089582E0089583E0089587E797E79A
:100D7000909301088093000888E19AE00FB6F894F8
:100D8000A895809360000FBE90936000FFCF2FB7AF
:100D9000F89460910705709108058091090590917C
:100DA0000A052FBF089580915D01089590915E011D
:100DB0009130D1F49091040597FF16C0E82FE69585
:100DC000E695E695EE31E0F4F0E0E853FE4F282F8B
:100DD000277081E090E001C0880F2A95EAF780959E
:100DE0009281892382830895E0ECF1E026EC31E0E2
:100DF0009281891301C0128231962E173F07C1F7E5
:100E0000089590915E019130C1F49091040597FF8F
:100E100014C0E82FE695E695E695EE31F8F4F0E09B
:100E2000E853FE4F877021E030E001C0220F8A9521
:100E3000EAF78281822B82830895A2ECB1E0EFEF82
:100E400090E02D91821751F0EF3F19F4211101C06C
:100E5000E92F9F5F9630A9F7EF3F09F408950E2E12
:100E6000000CFF0BE054FE4FE6CFA3E0B0E0EBE355
:100E7000F7E00C94FC282091020530910305281717
:100E80003907B1F09093030580930205E0910005C6
:100E9000F0910105309761F00084F185E02D3097E5
:100EA00039F024E029839B838A83CE01019609953A
:100EB0002396E2E00C941829A3E0B0E0E2E6F7E024
:100EC0000C94FC282091FE043091FF042817390768
:100ED000B1F09093FF048093FE04E0910005F0913F
:100EE0000105309761F00084F185E02D309739F0ED
:100EF00023E029839B838A83CE010196099523965B
:100F0000E2E00C9418298091FC04882369F0E091B8
:100F10000005F0910105309739F00190F081E02D46
:100F2000309711F00995089580E008954115510515
:100F300011F0FA01099508958091ED0480FD16C025
:100F400081FD16C082FD16C08091EC048823A1F0BB
:100F5000883280F428E0829FC001112468E270E0AA
:100F60000E947329862F672B39F0089582E0089537
:100F700084E0089588E0089581E008958091ED046B
:100F800080FD14C081FD14C082FD16C08091EB0469
:100F9000882381F08E3180F420E5829FC0011124E6
:100FA0006EE170E00E947329862F089584E1089510
:100FB00088E2089588E0089580E50895282F35EBAC
:100FC0002303C001112497FF04C080589109892F81
:100FD000089580589F4FFBCFFC01680F791F8FEF5A
:100FE00091E32191822728E030E087FF09C0880F34
:100FF000892721503109C9F7E617F70791F70895B6
:10100000880FF7CF90E06623A1F0855A9E4FFC0130
:1010100020812F3F89F0E22FE295EF70F0E080A170
:1010200090E02F7002C0959587952A95E2F7817020
:101030000895865A9E4FEBCF80E0089590E0662396
:10104000E9F0855A9E4FFC0180818F3FB1F0E82F77
:10105000E295EF70F0E041A18F7021E030E0B9013E
:1010600002C0660F771F8A95E2F7CB01962F909505
:10107000942391A392A1892B82A30895865A9E4F0F
:10108000E2CF9091E504E92FF0E04091E6049F0162
:101090002F5F3F4F2370332742171306A9F0E95102
:1010A000FB4F282F2F7780818078822B60FB87F978
:1010B00080839F5F93709093E5048091E3048F5F3A
:1010C0008093E30481E0089580E0089580E008952E
:1010D00081E08093A5020895F894E82FE295EF70DF
:1010E000F0E031A1282F2F7081E090E001C0880F3F
:1010F0002A95EAF7982F9095932391A392A1892B93
:1011000082A3789408950F931F938091FC04882301
:1011100021F03DDE1F910F91089539DE0091760296
:10112000109177022091780230917902600F711F3F
:10113000821F931FEFCF9091040592FF10C041E0F2
:10114000282F2471243009F040E031E0282F287145
:10115000283009F030E0431711F02CE0822793FF8C
:1011600010C041E0282F2471243109F040E031E023
:10117000282F2871283109F030E0431711F02CE0B6
:1011800082273091050530FF10C051E0282F2171D2
:10119000213009F050E041E0282F2871283009F073
:1011A00040E0541711F029E0822731FF10C041E0E0
:1011B000282F2171213109F040E031E0282F2871DA
:1011C000283109F030E0431711F029E0822794FD1F
:1011D000877E089582389105B9F1B0F48133910585
:1011E00009F47DC048F48932910509F46DC08A3252
:1011F000910509F479C008958533910509F45FC01C
:101200008933910509F10895833E9105D9F138F4A8
:10121000803E910529F1823E910579F10895863E3F
:101220009105D9F1873E910509F43EC0843E9105B0
:1012300041F52091050521FF24C08091040584FD1E
:1012400019C087EE90E0089520910405237009F0FD
:1012500056C02091050523FF14C089E290E008954F
:101260002091040520FD38C03091050530FF09C0EC
:1012700024FF3FC090E080E008952091040522FD06
:10128000F7CF08952091040522FD36C03091050561
:1012900030FD35C024FDEECFF4CF2091040523FFAF
:1012A000F0CF24FDE7CFCDCF2091040523FD2AC048
:1012B0003091050531FFEECF84EE90E00895209146
:1012C000040525FDCACF08952091040525FD1DC004
:1012D0002091050523FFD5CF89E390E00895209163
:1012E000040526FD15C008952091040526FD13C0B0
:1012F000089583EE90E0089582EE90E0089580EEE8
:1013000090E0089586EE90E0089585E390E00895DA
:101310008AE290E0089581E390E0B3CF7A30B8F4A8
:101320006630A8F48530B0F4E62FF0E096E0799FBF
:10133000E00DF11D11249CE3899FE00DF11D1124A6
:10134000EE0FFF1FE455FF4F85919491089580E0C3
:1013500090E0089581E0FCCF1F93CF93DF933ADFB5
:10136000EC01C11580E5D807E8F5C11580E4D80780
:1013700008F099C0C03ED10518F5CD3CD10508F064
:1013800081C0C83AD10570F4C53AD10508F072C0E1
:10139000C130D10511F118F0C430D105F0F4D0E01E
:1013A000C0E01BC0C33CD105D0F7C85AD0E0CC0F79
:1013B000DD1FCD59DE4F0990D881C02DD4640DC0FA
:1013C000C11580E2D80708F0C7C0C11581E0D80771
:1013D00008F05AC0C83ED10510F7CE01DF91CF9179
:1013E0001F910895C03682E5D80718F5C03482E50C
:1013F000D80708F066C0C03282E5D80708F05AC0A6
:10140000C11582E5D80708F48FC02C2F26952695A4
:1014100080E2289F900111248C2F8370C1E0D0E0DE
:1014200002C0CC0FDD1F8A95E2F7C22BD32BDD68FB
:10143000D4CFC03A82E5D80760F4C03882E5D80737
:1014400008F454C0CF71D0E0DC2FCC27C46FD06A31
:10145000C4CFC03C82E5D80708F45BC0C03E82E53B
:10146000D80708F09CCFDC2FCC27CC27DF71C06FCA
:10147000D06AB3CFC55AD0E0C05ADE4FC881D0E0A1
:10148000D064ABCFD065A9CF8D2F55DE182FCE01FC
:101490009927A0DEC12FD0E0DC2FCC27CC27DF712D
:1014A000C82BD92B9ACFCE01992794DECC27DF7099
:1014B000D06AF6CFCF71D0E0DC2FCC27C16FD06AD5
:1014C0008CCF2C2F26952695277080E2289F90019F
:1014D00011248C2F8370C1E0D0E002C0CC0FDD1F3F
:1014E0008A95E2F7DC68C22BD32B77CF2C2F269579
:1014F0002695277080E2289F900111248C2F8370FD
:10150000C1E0D0E002C0CC0FDD1F8A95E2F7DA68B7
:10151000EACF8C2F8F710FDEC82FD0E0DC2FCC27C5
:10152000CC27DF71D06259CF8C2F8F7104DE55E04C
:10153000D695C7955A95E1F7CF70D0E0DC2FCC2730
:10154000282F30E084FF06C044E0220F331F4A9565
:10155000E1F73327D069C7CF8D2F8F71ECDD182FBE
:10156000CE01992737DEC12FD0E0DC2FCC27CC2746
:10157000DF71906295CF982F90958091F90489231F
:101580008093F90408958091F9049091F804892BCF
:1015900090911202992391F0892B90915E019130E4
:1015A00071F49091040597FF0AC09EE1EAECF1E026
:1015B00020E0915040F4211110921202089596E01B
:1015C000E2ECF1E0F5CF3191332399F32F5FF1CFC6
:1015D0008091590590912005981301C008958F5F5F
:1015E0008770FACFB0E0A0E0E8EFFAE00C94F528BD
:1015F0007C010091B5021091B60280918602909113
:101600008702082B192BCFE0D0E0CC24C394D12C37
:10161000BC2EC6010C2E02C0880F991F0A94E2F757
:1016200080239123892B49F4219790F7B12C8B2D9E
:10163000CDB7DEB7E9E00C941129B7018C2F6EDE2F
:101640008BDE019789F3F3CFCF93DF93EC01CADFF1
:10165000BE0164DE81DEDF91CF9108959A3078F586
:10166000863068F5E82FF0E086E0989FE00DF11DE8
:1016700011249E2F977083E0F695E7958A95E1F700
:10168000EE0FFF1FEE0FFF1FE651FE4F50E040E050
:1016900080E0219130E0092E02C0369527950A940A
:1016A000E2F721703327042E01C0220F0A94EAF7D3
:1016B000822B4F5F5F4F4430510559F7089580E00A
:1016C00008959A3098F5863088F5E82FF0E086E0A6
:1016D000989FE00DF11D11248E2F877041E001C00D
:1016E000440F8A95EAF783E0F695E7958A95E1F746
:1016F000EE0FFF1FEE0FFF1FE651FE4F30E020E020
:1017000070E05191DF011197CB01022E02C0969536
:1017100087950A94E2F78170819585278423852730
:101720008C932F5F3F4F2430310559F708959093E4
:10173000B6028093B502089521E030E002C0220F86
:10174000331F8A95E2F7209530958091B5029091EC
:10175000B60282239323EBCF9091110280958923C7
:1017600080931102282F277061F4891751F090910E
:10177000050592FF06C0869586958695DDDF109259
:101780001102089521E030E002C0220F331F8A9534
:10179000E2F78091B5029091B602822B932BC7CFCE
:1017A00090938702809386020895FC01248122236E
:1017B000B1F08081918148DF92959F70963089F0D9
:1017C00050F49250923058F4803F19F030F4883E33
:1017D00030F481E008959A50F5CF843FD1F380E052
:1017E0000895883EB0F3813FD1F7F3CFA6E0B0E093
:1017F000ECEFFBE00C94FB2826E0FC01DE011196E7
:1018000001900D922A95E1F7FC01258189819A8149
:10181000222381F0662371F0E5DE182F682F89817D
:101820009A814FDF69817A81812F78DD2696E3E006
:101830000C94172913DF182FF5CF08950F931F93DA
:10184000CF93DF938B01EA0190911605943059F5FF
:101850008093E9008FEF9091E800815095FD06C0DC
:1018600095ED9A95F1F700008111F5CF8091E80090
:1018700085FF19C042D9811111C08091E80085FD12
:1018800006C08091E8008E778093E800F3CFF801DE
:1018900081918F018093F100219779F78091E80081
:1018A0008E778093E800DF91CF911F910F9108957B
:1018B00043E050E0BC0182E0C1CF46E050E0BC0113
:1018C00082E0BCCF40E250E0BC0182E0B7CFCF93D2
:1018D000DF93EC0148E050E0BC0181E0AFDF88E03D
:1018E000FE01ACE0B5E001900D928A95E1F7DF9141
:1018F000CF910895B0E0A0E0E0E8FCE00C94F4287B
:101900007C015B016A018091750201E010E08A3080
:1019100010F40AE010E0C1E0D0E0B501C701F60123
:101920000995811104C021960C171D072CF4CDB721
:10193000DEB7EAE00C941029CC9F9001CD9F300DCA
:10194000300D112490E080E045E34A95F1F7000066
:10195000019682179307C1F7E0CF80915E01813035
:1019600061F58091040587FF28C00DDE8093C901D1
:1019700040E250E063E172E088EC91E00E948C2943
:10198000892BD1F080E2E8ECF1E0A3E1B2E0019034
:101990000D928A95E1F7E0910005F09101053097ED
:1019A00059F00480F581E02D309731F086E0809386
:1019B000C80188EC91E009950895E5DD8093C001A8
:1019C00048E050E063E372E080EC91E00E948C29F3
:1019D000892B91F388E0E0ECF1E0A3E3B2E0019021
:1019E0000D928A95E1F7E0910005F091010530979D
:1019F00019F30280F381E02D3097F1F280EC91E051
:101A0000DACFCF93DF93EC014A855B856E857F85C6
:101A10008DDA8B81982F90958091F804892380939B
:101A2000F8048C81A8DD99DF86E0FE0111928A9589
:101A3000E9F7DF91CF910895CF93DF93EC018D818A
:101A400081FD15C082608D838091F8049B81892B74
:101A50008093F8048091F9049C81892B8093F90488
:101A60007CDF488559856E857F85CE015FDA1092CF
:101A7000FB041092FA048D8180FD02C0CE01C1DF0B
:101A8000DF91CF910895882311F075DD66CF089519
:101A9000882331F09091F904892B8093F9045DCF6C
:101AA00008951F93CF93DF93162F8A3031F481E08E
:101AB0009AD0DF91CF911F9108958D3011F480E07D
:101AC000F7CFC091AD02D091AE0296E0FE01A7EA39
:101AD000B2E001900D929A95E1F7803E80F186E0A8
:101AE000FE0111928A95E9F7C091AD02D091AE0244
:101AF000111131C046E050E0BE0187EA92E00E9439
:101B00008C29892B99F59E01215D32404091AF02CD
:101B1000642F70E0C9010E94D828481B463010F499
:101B2000240F311D2115F2E03F0710F030E020E0D6
:101B300029523D4F3093AE022093AD02BACFF6E06A
:101B40008F9FB00111246A5D7C4F46E050E0CE01CA
:101B50000E942329C9CF9E012A5F3F4FFE012E1705
:101B60003F0741F2808180958193F9CFCE01875D57
:101B700092409C0145E0369527954A95E1F741E072
:101B800050E0BA0102C0660F771F2A95E2F79B0169
:101B90006091D9047091DA04262B372B059665E005
:101BA000969587956A95E1F7FA0102C0EE0FFF1F3F
:101BB0008A95E2F7CF01822B932B9093DA048093DE
:101BC000D904A1CF1F93CF93DF93EC01162FFE0111
:101BD0008491811104C0DF91CF911F910895612FED
:101BE00060DF2196F4CFCF93382FE091AD02F091D2
:101BF000AE02E75DF2402091AF02622F70E0CF01AC
:101C00000E94D828281B822F332361F066E00E94AF
:101C10006729C82FC15010F4CF91089560E080E289
:101C200040DFF8CF9F01280F311D2115324018F0F9
:101C300080E0F0E0E0E08E0F9F2F911D89529D4FD4
:101C40009093AE028093AD02E7CF60E0BBDF81E00E
:101C5000CACFAB0124E630E0BC0188E70E94A92688
:101C600021E0892B09F020E0822F08958091DF0484
:101C70009091E204911103C091E08927089588238F
:101C800061F062E070E088E698E0E3DF811103C074
:101C90008091DF0408951092DF048091DF04ECCF7F
:101CA000CF93C091DF048091E2048823C1F06FD804
:101CB000605A75418F4F9F4F6093DB047093DC0433
:101CC0008093DD049093DE04C11107C062E070E0F0
:101CD00086E698E0BEDF811105C0C091DF048C2F3D
:101CE000CF91089581E08093DF04F7CF90910505AF
:101CF00092FB222720F9281771F080FB92F990932C
:101D00000505609104057091050584E090E00E944E
:101D1000532982E021CD0895CF92DF92EF92FF9276
:101D20001F93CF93DF9300D000D0CDB7DEB7C09024
:101D30007102D0907202E0907302F090740227D882
:101D40006C197D098E099F0911E0643671058105C2
:101D5000910568F1D8D96E5F7F4F8F4F9F4F698390
:101D60007A838B839C838091310190913201875AD1
:101D70009D4F4091300150E04530510510F044E056
:101D800050E0BE016F5F7F4F0E94992986E090E08E
:101D90000E946728182F882351F00E94C70660937D
:101DA0007102709372028093730290937402812F78
:101DB0000F900F900F900F90DF91CF911F91FF9098
:101DC000EF90DF90CF900895B0E0A0E0EAEEFEE063
:101DD0000C94F628EC0145E050E06FE572E00E94BB
:101DE0008C298C01C0905002D0905102E090520298
:101DF000F09053020E94C7066C197D098E099F0955
:101E0000643671058105910518F40115110541F13C
:101E10008091110190911201875A9D4F40911001BC
:101E200050E04630510510F045E050E0BE010E9400
:101E3000992982E090E00E946728C82F882351F0FA
:101E40000E94C70660935002709351028093520221
:101E5000909353028C2FCDB7DEB7E8E00C94122993
:101E6000C1E0F8CFA1E0B0E0E8E3FFE00C94EE2899
:101E7000C62E4A015901682E880F7708C3010E94B7
:101E80006728D82E882309F469C0C30123E0880F8E
:101E9000991F2A95E1F7FC01E050FF4F438150E084
:101EA0004115510511F041E050E080509F4FFC0179
:101EB00064817581675A7D4FCE0101960E949929F0
:101EC000F40140805180628073800E94C7066419CB
:101ED000750986099709643671058105910530F405
:101EE000B701C80179D899818917C1F10C2C000C70
:101EF000DD08C6010E946728782E8823C9F0960164
:101F000083E0220F331F8A95E1F7F901E050FF4F7C
:101F1000438150E0E416F50608F4A70120503F4F36
:101F2000F90164817581675A7D4FC5010E94992925
:101F3000B701C80151D891E02981281390E0D92E2A
:101F4000D72039F00E94C706F40160837183828331
:101F500093838D2D2196E0E10C940A29A701B80105
:101F6000C5010E949929F5CFA8E0B0E0EAEBFFE0B7
:101F70000C94F82888E0E82EF12C05E612E09E018A
:101F80002F5F3F4F45E552E064E083E06BDF082FB1
:101F9000882381F19091640280915402981751F145
:101FA00010E090916802809167028917E9F0E92FAB
:101FB000F0E0E35AFD4F848587FB662760F99F5F59
:101FC000937090936802909166029F5F909366026F
:101FD0008F7757D8182F8111E4CF85E090E00E94C9
:101FE0006728012F082302C01111F7CF80916402E6
:101FF00080935402802F2896E6E00C941429A5E0E3
:10200000B0E0E5E0F0E10C94F6286B0185E0E82E05
:10201000F12C0AE512E09E012F5F3F4F4CE452E0A5
:1020200061E080E01FDF882349F095E0FE013196F2
:10203000A7E4B2E001900D929A95E1F795E0E7E40C
:10204000F2E0D60101900D929A95E1F72596E8E02D
:102050000C9412291F920F920FB60F9211242F93F6
:102060003F934F935F936F937F938F939F93AF9320
:10207000BF93EF93FF938091E10082FF09C08091AD
:10208000E20082FF05C08091E1008B7F8093E10038
:102090008091DA0080FF24C08091D80080FF20C0AA
:1020A0008091DA008E7F8093DA008091D90080FFE2
:1020B000A9C080E189BD82E189BD09B400FEFDCFE0
:1020C00081E08093160580910B05811109C00E9463
:1020D0005E050E94FD058091E20084608093E2002D
:1020E0008091E10080FF1AC08091E20080FF16C05D
:1020F0008091E2008E7F8093E2008091E200806117
:102100008093E2008091D80080628093D80019BC4F
:1021100085E08093160583E080935F018091E10064
:1021200084FF2FC08091E20084FF2BC080E189BD35
:1021300082E189BD09B400FEFDCF8091D8008F7D7A
:102140008093D8008091E1008F7E8093E1008091A0
:10215000E2008F7E8093E2008091E20081608093B4
:10216000E20080911705882309F452C084E080932F
:10217000160580911605843009F452C081E08093E1
:102180005F018091E10083FF2CC08091E20083FF1A
:1021900028C08091E100877F8093E10082E08093F6
:1021A0001605109217058091E1008E7F8093E10063
:1021B0008091E2008E7F8093E2008091E200806156
:1021C0008093E20042E060E080E00E94CB058091D5
:1021D000F00088608093F00081E080935F0180933D
:1021E0005E01FF91EF91BF91AF919F918F917F9190
:1021F0006F915F914F913F912F910F900FBE0F9074
:102200001F90189519BC1092160510920B0568CFF7
:102210008091E30087FD02C081E0A9CF83E0A7CFD2
:1022200082E0ADCF78941F920F920FB60F921124D7
:102230008F939F93AF93BF9380910705909108056B
:10224000A0910905B0910A050196A11DB11D8093C9
:10225000070590930805A0930905B0930A05BF915F
:10226000AF919F918F910F900FBE0F901F90189577
:102270002FB7F8948091070590910805A091090562
:10228000B0910A052FBF0895CF93DF93EC01F0DFE3
:102290008C1B9D0BDF91CF910895EADF2091F40410
:1022A000211104C02091F504222321F09093F10420
:1022B0008093F0042091F604211104C02091F704CA
:1022C000222321F09093EF048093EE04E091000527
:1022D000F0910105309759F00680F781E02D309795
:1022E00031F082E08093F20482EF94E00995089542
:1022F0001092F90480915E01813021F580910405EE
:1023000087FF20C0EAECF1E08EE1DF011D928A95A3
:10231000E9F790E080E00E945C0790E080E00E9496
:1023200035071092F80419DB86E0E2EFF4E0DF01F4
:102330001D928A95E9F71092EB041092EC0410922A
:10234000ED04ABCFE2ECF1E086E0DFCFAAE2B0E053
:10235000ECEAF1E10C94FB28E8E1F5E08091F10072
:10236000819325E0E032F207C9F7809119058330A7
:1023700009F47DC008F5813009F454C0823009F4B5
:10238000C1C08091E80083FFFBC080911805909147
:1023900019059A3008F0F4C0E92FF0E0EE52FE4E35
:1023A0000C9486299312B912C012B912C0121113DB
:1023B0003313C01231143E148A3009F492C08B30AA
:1023C00009F472C08930E9F6809118058132C9F6A6
:1023D00080911C0590911D05029798F68091E80068
:1023E000877F8093E8008091E80082FF3BC0809166
:1023F000F3009091F200892798278927029731F4FA
:102400008091F100813011F0863021F48091F1004B
:1024100080935D018091E8008B778093E8000E94B3
:10242000AC05AFCF80911805813A09F0AACF809111
:10243000E800877F8093E80080911C0590911D053E
:10244000892B61F060E090E080E070E00E94570628
:102450008091E8008B778093E80093CF68E08CE070
:1024600095E0F3CF809116058111BDCF8ACF809181
:102470001805813A09F085CF80911C0590911D05C2
:10248000892B09F07ECF8091E800877F8093E80058
:102490008091E80080FFFCCF80915E018093F10085
:1024A0008091E8008E77B9CF80911805813209F0CC
:1024B00068CF80911C0590911D05892B09F061CF93
:1024C0008091E800877F8093E8000E94AC0581E05E
:1024D00090911A05911101C080E080935E0108DFA0
:1024E00050CF80911805813209F04BCF8091E800E0
:1024F000877F8093E8000E94AC0580911B05809344
:102500005C013FCF80911805813A09F03ACF809164
:10251000E800877F8093E8008091E80080FFFCCF8F
:1025200080915C01BBCF803889F0823849F5809179
:102530001C058F70873020F58093E9008091EB00B7
:1025400085FB882780F91092E90006C08091140568
:1025500090911505911182609091E800977F90937A
:10256000E8008093F1001092F1008091E8008E77EE
:1025700027C0282F2D7F21F48823A1F0823029F154
:102580008091E80083FF0AC08091E800877F8093F4
:10259000E8008091EB0080628093EB00AA96E3E074
:1025A0000C94172980911A05813051F7933009F066
:1025B00080E0809315051092E9008091E800877F04
:1025C0008093E8000E94AC05DBCF80911A05811151
:1025D000F2CF80911C058F702FEF280F263080F6E8
:1025E0008093E9002091EB0020FFE5CF933031F498
:1025F0008091EB0080628093EB00DDCF9091EB0047
:1026000090619093EB0021E030E001C0220F8A95A9
:10261000EAF72093EA001092EA008091EB008860CC
:10262000EACF8111ADCF10911A051F778091E30099
:102630008078812B8093E3008091E800877F8093EE
:10264000E8000E94AC058091E80080FFFCCF8091FB
:10265000E30080688093E30083E0111101C082E011
:10266000809316058DCF8058823008F089CF8091F5
:102670001A0590911B058C3D23E09207A1F583E09C
:102680008A838AE289834FB7F894DE01139620E0AB
:102690003EE051E2E32FF0E050935700E49120FF39
:1026A00003C0E295EF703F5FEF708E2F90E0EA304D
:1026B000C0F0C7968D939D932F5F243159F74FBF7C
:1026C0008091E800877F8093E8006AE270E0CE01A5
:1026D00001960E9457068091E8008B778093E8006E
:1026E0004FCFC096E7CF40911C0550911D05292F73
:1026F00033272330310509F443C078F52130310503
:1027000009F46DC08BE390E0E7ECF9E0223031058D
:1027100009F036CF2091E800277F2093E800209130
:102720001E0530911F058217930708F49C0140E0B5
:102730002115310509F062C0411160C08091E800A7
:1027400082FDC9CF80911605882329F2853019F2C0
:102750008091E80083FFF2CFBECF2132310599F19D
:102760002232310509F00CCF4115510509F441C061
:1027700086EB90E0EDECF8E04130510559F200CFE6
:10278000992781309105B9F058F0029709F0F8CEF9
:10279000E4E1FAE0E4918E2F90E0E4E1FAE007C092
:1027A000EEE3FAE0E4918E2F90E0EEE3FAE000979A
:1027B00009F4E6CEAFCFE2E2FAE0E4918E2F90E0AA
:1027C000E2E2FAE0F4CF4115510571F089E090E0C2
:1027D000E2EFF9E04130510509F49CCFD1CE82E11E
:1027E00090E0E2E0FAE096CF89E090E0E9EDF9E0F0
:1027F00091CF84E490E0E3E8F9E08CCF8091160576
:10280000882309F468CF853009F465CF8091E8000A
:1028100083FD61CF8091E80082FD90CF8091E80038
:1028200080FF86CF8091F3009091F200892798274E
:1028300089272115310519F08830910550F041E0C4
:10284000089709F040E08091E8008E778093E800D7
:102850006FCF44914093F100319621503109019698
:10286000E8CF803809F08CCE8091E800877F809394
:10287000E800809117058093F10077CE811180CE1A
:1028800010911A05123008F07BCE8091E800877F06
:102890008093E800109317050E94AC051123A9F05E
:1028A00084E08093160542E061EC81E00E94CB0554
:1028B00042E261EC82E00E94CB05809116058430F3
:1028C00051F482E080935F015BCE8091E30087FD4D
:1028D000E7CF81E0E6CF81E0F5CF1F920F920FB6F0
:1028E0000F9211242F933F934F935F936F937F9396
:1028F0008F939F93AF93BF93CF93EF93FF93C09129
:10290000E900CF708091EC001092E9008091F00016
:10291000877F8093F000789419DD1092E900809110
:10292000F00088608093F000C093E900FF91EF9180
:10293000CF91BF91AF919F918F917F916F915F9157
:102940004F913F912F910F900FBE0F901F901895B0
:10295000CFDC2FEF84E39CE0215080409040E1F7F2
:1029600000C0000088E19AE00FB6F894A895809323
:1029700060000FBE90936000FFCF662309F45BC038
:102980008D3C31F40E94BE0781958093F50485CC7F
:102990008E3C19F40E94BE07F8CF8F3C31F40E94A0
:1029A000BE0781958093F404F2CF803D19F40E9414
:1029B000BE07F8CF893D29F40E949C078093F60456
:1029C000E6CF8A3D21F40E949C078195F7CF8B3D8D
:1029D00031F40E949C0781958093F704D8CF8C3DF9
:1029E00019F40E949C07F8CF9FE2980F983070F47A
:1029F000815D990B21E030E001C0220F8A95EAF752
:102A00008091F304822B8093F304C1CF8D3D31F488
:102A10008091ED0481608093ED04B9CF8E3D21F467
:102A20008091ED048260F7CF8F3D09F0B0CF8091A7
:102A3000ED048460F0CF8D3CD9F49091F50497FFBC
:102A40001DC01092F5048091F404811106C080919C
:102A5000F504811102C01092EB048091F6048111FB
:102A600096CF8091F704811192CF1092EC048FCF12
:102A70008E3CD9F49091F50419161CF39FE2980F3F
:102A8000983008F03FC0815D990B21E030E0A9014A
:102A900002C0440F551F8A95E2F7CA0180959091B4
:102AA000F30489238093F304CECF9091F4048F3CF8
:102AB00029F497FFE3CF1092F404C5CF803D19F4B9
:102AC0001916CCF3DBCF9091F604893D29F4191641
:102AD000ACF61092F604B7CF8A3D19F497FFCECF2B
:102AE000F8CF8B3D39F49091F70497FFC7CF109240
:102AF000F704A9CF8C3D09F0C1CF9091F7041916C6
:102B0000B4F3BCCF8D3D31F48091ED048E7F809382
:102B1000ED0499CF8E3D21F48091ED048D7FF7CFA8
:102B20008F3D09F090CF8091ED048B7FF0CF88230B
:102B300061F19CEF980F913A20F40E94D6060C9414
:102B4000AD0C90E2980F983050F4877091E001C07E
:102B5000990F8A95EAF7892F0E94BB0AF0CF9BE56F
:102B6000980F933020F490E080E00C945C0798E597
:102B7000980F9B3120F490E080E00C94350793E3AC
:102B8000980F933110F460E0F8CE0895CF93882326
:102B9000B9F1C82F8CEF8C0F813AA0F580915E01BE
:102BA000813001F58091040587FF1CC0EC2FE6956C
:102BB000E695E695F0E0E853FE4F828190E04C2FD9
:102BC000477021E030E002C0220F331F4A95E2F740
:102BD00082239323892B79F08C2F0E94D6060E94A2
:102BE000AD0C09C0E2ECF1E08191C817A9F381E0D6
:102BF000E83CF807C9F78C2F0E9401070E94AD0C32
:102C0000CF91089580E28C0F883068F4C77021E07E
:102C100030E001C0220FCA95EAF78091F904822BB7
:102C20008093F904EBCFEBE5EC0FE33040F4F0E0F8
:102C3000E05AFE4F808190E00E945C07E1CFE8E51A
:102C4000EC0FEB3150F4F0E0EE0FFF1FED59FE4FAB
:102C5000808191810E943507D3CF83E38C0F83312C
:102C600078F661E08C2F89DECBCF1F93CF93DF9373
:102C7000182FEB018BDF8FE99FE00197F1F700C080
:102C800000002197C1F7812F52DFDF91CF911F9173
:102C90000895EF92FF920F931F93CF93DF93C62F68
:102CA000D42F122FFC0185818823A1F060935C054D
:102CB000DFDA90935B0580935A05C77081E001C00D
:102CC000880FCA95EAF70E94480DCDB7DEB7E6E057
:102CD0000C94142980915C05681334C0E0905A0567
:102CE000F0905B05C5DA8E199F09883C910550F577
:102CF00000E20D0FCD17B9F080E28C0F883040F460
:102D0000C77081E001C0880FCA95EAF70E94430DA1
:102D10000830F8F481E09D2F977001C0880F9A95D4
:102D2000EAF70E94480D6AE070E0812F9EDF0830CC
:102D300060F6D77081E001C0880FDA95EAF70E944B
:102D4000430DC3CFC77081E001C0880FCA95EAF771
:102D5000F6CF6AE070E0812F88DFB7CF80E09091F6
:102D6000E6042091E504291731F1E92FF0E0E9515B
:102D7000FB4F808187FB222720F98F779F5F93701D
:102D80009093E6049091E4049F5F9093E404882379
:102D900049F0813071F46AE070E08EE4211108C0DE
:102DA0008BE406C06AE070E089EA211101C08AEA7A
:102DB0005CDF81E0D4CF0895FC018281813029F469
:102DC00082EEE4DE82EEB3CE08958230E9F789E345
:102DD000DDDE89E3F8CFB0E0A0E0E1EFF6E10C94AE
:102DE000F0288091E204882309F4D1C1C091E00465
:102DF000D091E1043DDA8C1B9D0BC29708F4E1C031
:102E000037DA9093E1048093E00487ED92E09093A9
:102E1000AE028093AD028091FC04882309F4D1C0F6
:102E200060E08BEC98E00E94E20D60E085EC98E0B9
:102E30000E94E20D9091B5028091B602282F30E0F9
:102E40002115310559F5292F382F80E0A90174E0AB
:102E5000569547957A95E1F74115510511F08C5F2C
:102E60009A01A901569547955695479541155105E3
:102E700011F08E5F9A0136952795232B09F08F5F0D
:102E8000823009F4CFC060F4882399F0813009F4CE
:102E9000C5C081EA98E00E94250E10C088E0D6CF18
:102EA000833009F4C3C08430A1F760E087EA98E07A
:102EB00003C060E08FEB98E00E94E20D60E08BE9D8
:102EC00098E00E94E20D0E94830781FB662760F96B
:102ED00085E998E00E94E20D60E08FE898E00E94AA
:102EE000E20D60E08DE898E00E94E20D60E08AE883
:102EF00098E00E94E20DC091B102D091B202B8D91F
:102F00008C1B9D0B8536910598F08091B00290E066
:102F10000196837099278093B002AAD9B0E0A0E00F
:102F20008093B1029093B202A093B302B093B40223
:102F30008091B00290E0880F991F60E08E57974F04
:102F40000E94E20D8091B00290E0880F991F8E5789
:102F5000974F0E94250E60E08FE798E00E94E20DF7
:102F60008CE798E00E94250E60E089E798E00E94D7
:102F7000E20D86E798E00E94250E60E083E798E086
:102F80000E94E20D80E798E00E94250E60E08FE746
:102F900098E00E94E20D8FE798E00E94250E60E025
:102FA00083E798E00E94E20D8AE898E00E94250EEF
:102FB00060E08DE698E00E94E20D8AE698E00E94CB
:102FC000250E8091D9049091DA04892B09F4C6C0AA
:102FD0008091E204882309F4C1C08091D804811152
:102FE000BDC00E94500E2091D9043091DA04211501
:102FF000310509F4B3C080E041E050E0082F10E053
:103000003A01082E02C0660C771C0A94E2F7B3015D
:1030100062237323672B71F48F5FF0CF60E089EB3D
:1030200098E04ACF60E083EB98E046CF60E08DEA1D
:1030300098E042CF9091D70490FFAEC0880F880FE0
:10304000880F8093550110925801895F8093560133
:1030500083E08093590124E630E047E050E063E5E7
:1030600071E088E70E946A26892B09F077C0A801E1
:1030700085E0440F551F8A95E1F78091D70480FFC2
:103080009DC0E7EBF2E080E2DF011D928A95E9F74F
:10309000AAEBB1E006EB11E0882483942D91E801BE
:1030A00069918E01640F752F711D69527D4F30E05B
:1030B00029543D4FF90197E07F01E21AF30A982C59
:1030C00001C0990CEA94EAF77B01B12CE7018991E0
:1030D0007E018921A92EAB18DA2DD770CD2E0D2EA9
:1030E000000CDD08C82F01C0CC0FDA95EAF7AC2E32
:1030F000D194C194D108D7E0CD22DD240C2C01C09D
:1031000086950A94EAF7DC2ED82A80818D2980835F
:10311000B39488E0B812DACF915031969F3F61F6B0
:10312000C1E0AE3BBC0709F0B9CF04E610E020E2F5
:1031300030E047EB52E060E488E70E94EA26892B02
:1031400069F4E301C095D0958091D9049091DA0497
:10315000C823D923D093DA04C093D9048091DF0423
:103160008823A9F00E94C7060091DB041091DC04BB
:103170002091DD043091DE04601B710B820B930BF8
:103180006F3F7F4F8F4F9F4710F40E94360ECDB791
:10319000DEB7EEE00C940C298295880F8076809340
:1031A0005501980136952795369527952093580116
:1031B000815E80935601209359014DCF49525D4F56
:1031C00004E610E020E230E0B6CFAFE0B0E0EBEE96
:1031D000F8E10C94EF288E010F5F1F4F8AE0F80191
:1031E00011928A95E9F78BE9E82E81E0F82E6801C3
:1031F00090EA692E91E0792EAA24A394B12C36EAA4
:10320000832E31E0932EF70181917F018F3F09F4E6
:1032100040C0F894E82FE295EF70F0E021A18F70A4
:10322000A50102C0440F551F8A95E2F7CA01922FEB
:10323000982B91A392A18095892382A3789400C0B2
:10324000E0EAF1E0512C31E021912F3F09F49BC0DD
:10325000A22FA295AF70B0E090968C9190E02F7065
:1032600002C0959587952A95E2F780FD8CC0832F43
:10327000582A330F8E169F0639F7F7013197808150
:103280008F3F11F00E946C0850EA5A95F1F7F60151
:103290005082FFEFCF1ADF0A6E147F0409F0B3CF1C
:1032A0004AE050E0B8018AE792E00E948C2900973A
:1032B00041F02AE0F801AAE7B2E001900D922A95C8
:1032C000E1F70091850210E008571D4F892B09F4A2
:1032D0005CC081E080933F020E94381190933E02CF
:1032E00080933D02D12CC090FC04CC2009F4AAC0EC
:1032F0007E012BE0E20EF11C85E0F70111928A9528
:10330000E9F7809175028A3008F065C04FEF5FE001
:10331000B701C8010E947A0C882309F480C044EEEA
:103320005EE0B701C8010E947A0C882309F477C0D7
:1033300044EB5FE0B701C8010E947A0C882309F4CE
:103340006EC04CE85EE0B701C8010E947A0C882389
:1033500009F465C0109275028091840290E045E006
:1033600050E0B70188579D4F0E948C2921E020939F
:103370004602892B09F046C0C12C8C2D8D292F9631
:10338000EFE00C940B2980E073CFD0903F02DD205A
:1033900009F4A8CFE0903D02F0903E020E9438115F
:1033A0008E199F09059708F49DCF45E050E06AE724
:1033B00072E0C8010E948C29892B59F085E0EAE768
:1033C000F2E0D80101900D928A95E1F710923F0248
:1033D0008ACFD12CFBCFA0904002B09041020E9436
:1033E00038118A199B09843F914008F08FCF809152
:1033F0004602882309F285E0F70111928A95E9F7E0
:1034000010924602A0918402B0E0A857BD4F85E01B
:10341000FE013B9601900D928A95E1F7AECF809127
:1034200075028F3F19F08F5F80937502809175024E
:103430008A3008F491CF0E94381190934102809312
:103440004002D5CFE0908402F12CA70148575D4F90
:103450007A0185E0F801AAE5B2E001900D928A9523
:10346000E1F765E070E08AE592E00E94EC07809366
:10347000590285E0EFE5F2E0D70101900D928A95BF
:10348000E1F788E0E3EEF4E0A5E6B2E001900D920A
:103490008A95E1F768E070E085E692E00E94EC072B
:1034A0008093640280906D0290906E02A0906F02F3
:1034B000B09070028091420290914302A091440228
:1034C000B091450288169906AA06BB0609F455CFA5
:1034D0008092420290924302A0924402B09245022E
:1034E0000E94C706861A970AA80AB90A809276022D
:1034F00090927702A0927802B09279023ECFB0E02B
:10350000A0E0E5E8FAE10C94F528FC0124812223EF
:1035100009F4F4C08C0161E00E94F60BEC01F801A3
:1035200085818823F1F08091FA049091FB04009743
:10353000C1F0C817D907A9F0E3E4F1E0882311F03E
:10354000F0E0E0E0858184608583D183C083CF0192
:103550000E941C0D1092F80461E0C8010E94F60B55
:10356000EC01CE0197558F3F910511F008F0A0C0F6
:10357000C111B5C0F80195818091480190FB80F997
:10358000809348018581882309F471C00E94381115
:1035900090939E0280939D02809145018F5F80935E
:1035A00045018091F8049091F904892B809346019C
:1035B00080911202809347014091490150914A0144
:1035C000609151017091520183E491E00E9496074D
:1035D0008091480181FD48C09C2F8D2F9093FA0463
:1035E0008093FB04F8018581882309F445C4109277
:1035F0005C059E0130572332310508F02CC484E06D
:1036000090E00E9434299093050580930405FE0103
:10361000E150F047E232F10508F08CC0EE5EF44E66
:103620000C948629D41B491CDC1BA61BAA1BE01B7F
:10363000AE1BE41BF01BBA1B421CBE1BF41BC21BBF
:10364000F81B201CC61BFC1B271CCC1B021C0A1CC5
:10365000B21BE81BB61BEC1BD01B061C161C301C37
:10366000401CA01BD81B501C90E080E0B7CF4091BD
:103670004F0150915001609151017091520183E4CA
:1036800091E00E9496078091480181FFABCF83E4CF
:1036900091E00E94010D8091FA049091FB04C817FB
:1036A000D90709F09FCF1092FB041092FA049ACF29
:1036B000FE01E851FC47E730F10508F093CFED59E2
:1036C000F44E0C948629871B8B1B6A1B831B8F1B54
:1036D000931B971B26E241EE61EEC801DADA809176
:1036E0001102877059F0F8018581882339F08091A3
:1036F000050582FF03C082E00E94AC0BCDB7DEB7A8
:10370000E9E00C94112927E245EE65EEE6CF26E2CA
:1037100041EE60EEE2CF27E245EE64EEDECF26E238
:1037200041EE62EEDACF27E245EE66EED6CF28E232
:1037300041E0EBCF8091040581608093040595C042
:10374000809105058860809305058FC080910405F0
:103750008260F3CF809104058460EFCF80910405EF
:103760008860EBCF809105058160EDCF80910505E4
:103770008260E9CF809104058061DFCF80910405EC
:103780008062DBCF809104058064D7CF0E947811DE
:10379000809104058068D1CF809104058860DCCFDA
:1037A000809105058260E0CF809104058E7FC5CFB2
:1037B00080910505877FC7CF809104058D7FBDCFA0
:1037C000809104058B7FB9CF80910405877FB5CFA9
:1037D000809105058E7FB7CF809105058D7FB3CF92
:1037E000809104058F7EA9CF809104058F7DA5CFA0
:1037F000809104058F7BA1CF0E94781180910405F0
:103800008F779BCF80910405877FDCCF8091050562
:103810008D7FE0CF8091040582FB992790F921E00C
:10382000922790FB82F990FB83F987CF8091050561
:10383000982F909591708E7F892B90FB81F983CF83
:1038400090910405892F8F7B96FF806476CF0E942C
:10385000781190910405892F97FB87F980586DCFD7
:1038600061E08EE090E00E9439296091040570913A
:10387000050584E090E00E9453290E9478112FCF23
:1038800060E0EFCF90910405892F8F7E94FF8061D7
:1038900054CF90910405892F8E7F90FF81604DCF8A
:1038A00090910505892F877F93FF88604CCF89E22F
:1038B0000E9401070E94AD0C12CF89E20E94D60639
:1038C000F9CF882381F0C3303CE7D30709F484C0E3
:1038D00008F067C0C1159CE7D90709F470C0C13072
:1038E000DC4709F47FC0F8018581C081D18188233C
:1038F00009F486C0CE010E94F20AF82E682FCE018C
:103900000E94610BBE018F2D0E948E090E94AC099E
:10391000D82FC92FB82EF801D580C680C2943FE0B9
:10392000C32280911102877009F1ED2CDD20F9F09E
:10393000892F807F803469F080E28D0F8830B0F06D
:10394000892F807E803229F4F1E0FD1778F4CC20B5
:1039500069F08091050582FF09C082E00E94AC0BEE
:10396000809111028770EE24E3948111E12CFC2EEA
:10397000F2942FE0F2222BE02F1508F41BC1EF2D5B
:10398000F0E0EB53F34E0C948629051D051D3C1DFC
:103990003C1DD31DF41DDA1DDA1DF91D861E971E70
:1039A000971ECB35FCE7DF0749F1CC352CE7D20772
:1039B000D9F0CA35DC4709F096CF81E01CC00E94DF
:1039C00078118FEF94E3ECE081509040E040E1F714
:1039D00000C000000E94B6066FEF7FEF90E080E02D
:1039E0000E9453290E94A8148091050582FB882714
:1039F00080F991E089270E94760E75CF80E0FBCF99
:103A0000CE010E942E0BF82E7DCF3C2F3F70F32E5F
:103A1000C07F19F0F29490EFF9228D2FDD20B9F0DC
:103A2000FF2069F090E29D0F983010F0D11109C08D
:103A30008091F904F82AF092F9040E94AD0C8D2FC0
:103A400040C08091F804F82AF092F804F6CF6FD8BD
:103A5000FF20C1F1D05ED83010F0B11004C08F2D1E
:103A60000E94BB0A06C0F0948091F804F822F092FC
:103A7000F8040E94AD0C26C08C2F8F70F82EC07FEA
:103A8000C03219F0F29480EFF822BB2051F091E09F
:103A9000B91609F463C0DD2009F46FC0CC2099F198
:103AA000CECF8091050582FD2AC0DD2019F1FF20CF
:103AB00039F08091F904F82AF092F9040E94AD0CD3
:103AC00080E064D8EE2009F4CAC08091110280FD24
:103AD000C6C0F80115828695869586950E94C20B10
:103AE000C8010DDD809111028695869586950E940C
:103AF0009C0BB5C080E01BD8FF2021F3B0CFDD20A8
:103B000099F0C11004C08F2D0E94480DDBCFE1E079
:103B1000CE12D8CF809112029F2D9823F91691F2E0
:103B2000F82AF0921202CECFC110CCCF8F2D0E9476
:103B3000430D909112028F2D892329F08F2D8095AE
:103B40008923809312028091E9019F2D982309F423
:103B5000B9CFF094F822F092E901B4CFDD2029F03A
:103B6000F5E0FC1508F4AECFCECF24E02C1508F418
:103B7000A9CF8F2D0E94430DA5CFCC20D1F3D933EF
:103B800069F43FEF87EE93E0315080409040E1F7D9
:103B900000C000008D2F0E94971594CFEFE3FCE941
:103BA0003197F1F7F5CF8C2F86958695837041F08C
:103BB000813081F088EF8F0D843008F083CF4DC0C5
:103BC0008D2F9C2F9370D11002C080E090E00E9456
:103BD0005C0778CF8D2F9C2F9370D11002C080E0AE
:103BE00090E00E9435076ECF6D2D8D2F0E94BD1481
:103BF00069CF8C2F837009F045C0D1102EC04D2F96
:103C0000429546954770440F440F2D2F2F7030E09A
:103C1000042E02C0220F331F0A94E2F790E080E0E6
:103C2000D4FF09C08FE090E002C0880F991F4A9529
:103C3000E2F780959095C695C695C370C230C9F0DD
:103C4000A8F44091860250918702C13069F0822B1E
:103C5000932B842395230E94D00B0E94830760E05E
:103C6000C8010E94F60B4ACD242B352B822B932BB7
:103C7000F2CF822B932B20918602309187028227EC
:103C80009327E9CF8695DD2011F08C2F8170882352
:103C900021F34D2F429546954770440F440F2D2F29
:103CA0002F7030E0042E02C0220F331F0A94E2F777
:103CB00090E080E0D4FF09C08FE090E002C0880F60
:103CC000991F4A95E2F780959095C695C695C37061
:103CD000C23099F078F44091B5025091B602C130EB
:103CE00039F0822B932B842395230E94970BB5CF19
:103CF000242B352B822B932BF8CF822B932B2091C7
:103D0000B5023091B60282279327EFCFCF70DD2026
:103D100039F08C2F0E94C20B8D2F0E94480D9DCF31
:103D20008D2F0E94430D8C2F0E949C0B96CF8D2FC0
:103D3000F2EFBF1609F43FC0FB1580F020EFB2167A
:103D4000F1F031EFB316A1F0DD2009F464C0CC200E
:103D500009F45EC08D2F0E94C6152CCF93EFB916C3
:103D600089F1E4EFBE12F0CF9091050592FD37C0C6
:103D70008C2F8F71DD2019F10E94C20B1BCFDD202B
:103D8000A9F0F4E0FC1508F415CFCF7181E090E0C4
:103D900002C0880F991FCA95E2F72091B5023091B1
:103DA000B602822793270E94970B04CF25E02C159B
:103DB00008F400CFEACF8C2F8F71DD20E9F20E944A
:103DC0009C0BF8CE90E080E0DD2069F3CF7181E0BC
:103DD00090E002C0880F991FCA95E2F7E4CFDD207A
:103DE00061F08C2F8F7192FFC7CF98E0899F90016F
:103DF0001124236020931102BFCF81E00E94AC0BFD
:103E0000E1E0EC1508F0D6CE82E00E94AC0BD2CEF9
:103E10008C2F8F71B1CFCC20A1F0893369F4FFEFE3
:103E200027EE33E0F15020403040E1F700C00000C1
:103E30008D2F0E949715BECE8FE39CE90197F1F775
:103E4000F5CF8C2F8F71BBCF8091E801882309F4C7
:103E500034CD85E333CDC631FCE7DF0789F48091AB
:103E6000F9048A7A91E009F490E09093E8018823BC
:103E700009F41DCD85E31CCDC6312CE7D20721F313
:103E80009E01205E32452032310508F01ACD8111A5
:103E90002ACDCF7181E090E09C0102C0220F331F38
:103EA000CA95E2F7E901622F83E090E00E94392988
:103EB000CE010E94D00B13CCCF93DF9380911002E0
:103EC000807F09F04CC080910F02882309F447C01D
:103ED000E091590550912005C0910B02D0910A0242
:103EE00060910C0270910D0247E05E17C1F18E2FB8
:103EF00090E0E49FF0011124EF5DFA4F248122232A
:103F000089F1489FF001499FF00D1124DF01AF5D59
:103F1000BA4F11962C9111972C1324C02C912D136C
:103F200021C015962C91159721111CC012962D9128
:103F30003C91261B370B283C3105A0F480911002E0
:103F40008F70806180931002E95DFA4F80818F70DD
:103F5000806180838AE092E0D2DA0E94E80ADF91F1
:103F6000CF910895FC013196E770BFCFA4E1B0E096
:103F7000ECEBFFE10C94F2288C0186E0F801DE0105
:103F80001F9601900D928A95E1F7F8018481E580F2
:103F90009AE0A92E92E0B92E90910E02911126C0BE
:103FA000882309F1EE20E9F0C8010E94D50BF82E14
:103FB0008823B9F087E0F801D50101900D928A9528
:103FC000E1F780910E02813031F480910A029091E4
:103FD0000B020E94240B70DF8F2D6496ECE00C9492
:103FE0000E29C8018CDAFF24F394F6CFD080C1806B
:103FF00082809380F0900F0220910C0230910D028C
:10400000A401421B530BFF2009F4D2C0483C5105C8
:1040100008F08DC0882301F390910B02809110026B
:10402000282F207F09F053C0C91213C090910A02B3
:10403000D9120FC0E11045C08F70806180931002CB
:104040008AE092E05CDA80911002F8018683F12C1C
:10405000C3CFE11036C06C2D8D2D0E943F056C2D15
:104060008D2D0E943F05E82E8111F1CFDF86C88A91
:104070008F8598890E94240B292F22952F70243038
:1040800058F49F70223078F0992389F0F8019681D6
:10409000907F69F4FE2CA0CF2A50223060F0C80136
:1040A0002EDAEF2CF7CF992311F0882399F3805E55
:1040B0008830A8F7EFCF803F68F3815F833078F7CF
:1040C000E9CF80911002816080931002C0CFC912A5
:1040D00007C090910A02D91203C0EE2009F489C0EA
:1040E000C8010E94D50B882309F47BCFEE2009F488
:1040F00078CF80911002803280F020910A023091B6
:104100000B02398728879B868A8690910E029C87AE
:104110001D868E87CE010896F2D987E0F801AAE0C5
:10412000B2E001900D928A95E1F7C6DE5CCF9091E6
:104130001002292F207F49F48AE092E0E0D987E03D
:10414000F50111928A95E9F782CF882309F444CFCB
:1041500080910B028C110FC080910A02D8120BC003
:10416000E11009C09683C801CAD987E0F501119210
:104170008A95E9F731CFC8010E94D50B882309F44D
:1041800030CFEE2009F42DCF80911002803228F23A
:1041900020910A0230910B023A8329839C828B8200
:1041A00090910E029D831E828F83CE010196B4CF23
:1041B000483C5105D0F6882309F415CFFE2CEE209B
:1041C00009F40FCF80910B028C111FC080910A025D
:1041D000D8121BC08091100280FD0EC0982F907FD6
:1041E00059F08683903F31F0982F907F905F8F70C9
:1041F000892B8683C80183D987E0F801AAE0B2E061
:1042000001900D928A95E1F7E7CEC8010E94D50B87
:10421000811183CF80911002816080931002C801C8
:104220006ED9DACEABE1B0E0E7E1F1E2E4C74E8B64
:104230005F8B688F798F8A8F9B8F91111092F80412
:104240001D8A86E0FE017696DE011F9601900D9292
:104250008A95E1F78B89882351F061E0CE010F96B2
:104260000E94F60B61E0CE010F960E94F60B87E0EC
:10427000FE013F96DE01189601900D928A95E1F7B6
:10428000CE01089673DE81112AC087E0FE013896C0
:10429000DE01119601900D928A95E1F78C858823B5
:1042A000F1F02091200530E0C9010196877099272F
:1042B000409159054817190651F197E0929FD00196
:1042C000939FB00D1124AF5DBA4FFE01319601905E
:1042D0000D929A95E1F7809320050E94E80A17E075
:1042E00080915905909120058917F1F0819FC001B7
:1042F00011248F5D9A4F3ADE8823B1F080915905E1
:1043000090E001968770992780935905E9CF0E9424
:104310007811109220051092590587E0EAE0F2E04A
:10432000DF011D928A95E9F76B96E3E080C7A6E06E
:10433000B0E0ECE9F1E25EC70E9438118C01809197
:104340003B0290913C028017910779F019821A8202
:104350000E943811682F49815A81792F80E090E0BE
:1043600061DF10933C0200933B022696E4E05EC7B7
:104370001F920F920FB60F9211248F939F93AF93BA
:10438000BF9380910605811113C08091070590911C
:104390000805A0910905B0910A054196A11DB11D1E
:1043A0008093070590930805A0930905B0930A052B
:1043B000BF91AF919F918F910F900FBE0F901F9063
:1043C0001895ADE0B0E0E6EEF1E206C785B780688B
:1043D00085BF85B7806885BF84B7877F84BF0FB6E8
:1043E000F894A89580916000886180936000109295
:1043F00060000FBE80E890E00FB6F89480936100F3
:10440000909361000FBE81E080935F0186E698E0A3
:104410009093BF018093BE010E945E050E94FD053E
:104420008091E20084608093E20078948091160588
:10443000882399F01091E9001F708091EC0080FFB3
:10444000EFC080E8182B1092E9008091E80083FD0E
:104450000E94A6111F701093E90082E084BD93E0D2
:1044600095BD9AEF97BD80936E00109276021092E0
:10447000770210927802109279028091D8008061C0
:104480008093D8002AE12A95F1F700C08091D900E5
:10449000182F117080FD04C00E945E051092160551
:1044A0001093FC041093FD041093380111112CD5C6
:1044B000E3EEF4E088E0DF011D928A95E9F7809150
:1044C000380191E089278093A1028091380190936F
:1044D000A4028091380180913801811106C084EFD7
:1044E00080935A0185EF80935B0160E080E00E9439
:1044F0001E0861E080E00E941E08EFE8F1E03197BD
:10450000F1F700C0000010E08091A402181708F431
:1045100089C0809138018091380190E0811101C0FB
:1045200095E09093850285E0891B809384020BE9D6
:1045300011E0D8018D918D018F3F11F00E946C0820
:10454000B1E0003A1B07A9F700EA11E046EAE42EC1
:1045500041E0F42EF80181918F018F3F11F00E940C
:104560006C08E016F106B1F78AE0E8E8F2E0DF0156
:10457000282F1D922A95E9F7EAE7F2E0DF011D9264
:104580008A95E9F790E080E06FD6833E9E4F21F157
:1045900063EE7EEF90E080E086D660E082E090E01F
:1045A00068D681E090E0909387028093860261E074
:1045B00083E090E05ED660E074E184E090E073D642
:1045C00040E050E0BA018FE090E065D640E050E076
:1045D000BA0183E190E05FD682E090E03DD680931F
:1045E000920284E090E040D6909305058093040504
:1045F0000E94E518EFEFF6E721E0E150F04020409F
:10460000E1F700C000000E94E5188091880280FF59
:104610001BC06FEF7FEF90E080E045D60E94B606AA
:1046200080E010CF60E0812F0E940208082F61E037
:10463000812F0E940208E12FF0E0EE55FD4F880F18
:10464000802B80831F5F60CF83E090E005D690E0F1
:104650000E94D00B8091FC04882309F4BAC083E047
:104660008093D70480FDB7C080E88093AF02FED26C
:104670006BE070E08BE193E00E94290E8823E9F162
:104680008091D70465E070E081FDA7C086E193E0EA
:104690000E94290E882389F16DE070E084E093E0A8
:1046A0000E94290E882349F10E94C706605A75416D
:1046B0008F4F9F4F6093DB047093DC048093DD0485
:1046C0009093DE04E7EDF2E080E092E0DF019C01F0
:1046D0001D9221503040E1F7F093AE02E093AD021D
:1046E0008FEF9FEF9093DA048093D90481E0809359
:1046F000E2048093DF041092D8048091FC048111BD
:1047000001C005D489E391E09093010580930005F1
:1047100098E1E92EF12C22E9C22E22E0D22E772454
:10472000739432E0A32EB12C8091160510E402E1BF
:10473000853009F486C00E94E51803E912E088E894
:10474000882E82E0982ED401F80191918D9122E07B
:10475000ED39F20709F47FC09817B9F33091FC04E2
:104760003D87612CD4015D904D01F80121908F01AE
:10477000251431F1412C332433942524822D8321B7
:10478000B9F0FD85FF23A1F04F8268860E943811A1
:104790009A87898721E02B8791E0832D852109F471
:1047A00090E09C874F81588569857A858B853ADDB5
:1047B0004394330C36E04312E1CFF8013197508235
:1047C00063948AE06812CECF0E94830866246394C3
:1047D00046C080E045CF80E248CF81E193E058CFEA
:1047E00080911605843019F10E94360E109206054C
:1047F0000FB6F894A895E09260000FBE1093600089
:1048000083B7817F846083BF83B7816083BF7894DF
:10481000889583B78E7F83BF0FB6F894A895809153
:104820006000886180936000109260000FBE0E945B
:10483000E518E8E8F2E081918111A8C1CE16DF0603
:10484000D1F780911605853009F4CACF0E947811FE
:104850000E94830770CF981381CF69DD612C9090FF
:10486000FC04992031F10091FA041091FB04011528
:104870001105E1F080909D0290909E020E943811F7
:1048800088199909893C910588F090E080E0011130
:1048900002C083E491E0DC0115962C9122FD06C054
:1048A0000E941C0D9090FC04992019F00E94AE16F5
:1048B000982E8091A502882351F01092A502809134
:1048C000E5048093E6048091E3048093E404812C62
:1048D0003AC061E0882D0E940208182F60E0882D00
:1048E0000E940208E12FEE0F8E2B082D10E0D80158
:1048F000AE55BD4FEC919E2F9370891719F1EE0FB5
:10490000EE0FE82BEC938091A102880DEF70F0E0A0
:10491000EA55FE4F01561D4F5080F8019081590E07
:104920005082F1E060E0F51524F02FEF52161CF4F0
:1049300061E00E944108852D550C990BB501D3D437
:10494000D8018C9383948091A402881610F28091F0
:10495000FC04882319F00E94AE16982A992039F099
:104960000E9483080E94EB160E94500E04C00E9411
:10497000EB166110F9CF86E0E2EFF4E0DE0111966C
:1049800001900D928A95E1F74090F3045090F40461
:104990009090F5048090F6046090F7041092F4046F
:1049A0001092F5041092F6041092F704511003C00F
:1049B000992009F447C00091F0041091F1040E947D
:1049C00038119C01201B310B9091EB04992309F4C1
:1049D000F9C025313105B0F19F3F19F09F5F9093E9
:1049E000EB04552059F00E94BE0791E015140CF01D
:1049F0009FEF899F802D11248093F404992059F012
:104A00000E94BE079FEF19140CF491E0899F802D3E
:104A100011248093F5048091F404882399F0109177
:104A2000F504112379F00E94DE07882309F473C08E
:104A30008093F404812F0E94DE07882309F46EC05E
:104A40008093F504811003C0662009F445C00091ED
:104A5000EE041091EF040E9438119C01201B310BD1
:104A60009091EC04992309F4B2C021353105A0F1ED
:104A70009F3F19F09F5F9093EC04882059F00E94AB
:104A80009C0791E018140CF09FEF899F802D112452
:104A90008093F604662059F00E949C079FEF16143D
:104AA0000CF491E0899F802D11248093F70480916C
:104AB000F604882389F01091F704112369F00E940D
:104AC000DE07882371F18093F604812F0E94DE07B0
:104AD000882351F18093F7048091F304481227C092
:104AE0008091F404882311F0851121C08091F50490
:104AF000882311F098121BC08091F704882311F0CD
:104B0000681215C09091F604992319F081E089127A
:104B10000FC080E00DC07092F4048CCF7092F50449
:104B200091CF7092F604D1CF7092F704D5CF81E087
:104B300080FD13C08091F404811126C08091F5049A
:104B4000811122C08091F60481111EC081E09091F4
:104B5000F704911101C080E080FD0E944D1186E0B4
:104B6000FE013196A2EFB4E001900D928A95E1F733
:104B70000E9483079091A602891709F4D5CD8093EE
:104B8000A6020E94C706D0CD81E0E6CF8091150530
:104B9000882309F456CE30E139BD09BD09B400FEC1
:104BA000FDCF8091D8008F7D8093D8008091E00068
:104BB00082608093E0008091E00081FDFCCF0E9444
:104BC00078113FCE2B30310508F008CF3BCF2B308A
:104BD000310508F04FCF80CFEF92FF920F931F93D4
:104BE000CF93DF93182FEB011092BC0084EA8093DF
:104BF000BC000E9438117C018091BC0087FF0DC071
:104C00008091B900887F8830A1F08091B900887FB9
:104C1000803179F08FEF9FEF08C0C7010E944411E7
:104C2000C817D90748F78EEF9FEFCDB7DEB7E6E09C
:104C3000FBC21093BB0084E88093BC000E94381133
:104C40008C018091BC0087FF0AC08091B900887FE9
:104C5000883111F08034F1F690E080E0E6CFC801B1
:104C60000E944411C817D90760F7DDCF1092B90030
:104C70008CE08093B80008950F931F93CF93DF9338
:104C8000EB018093BB0084E88093BC000E94381144
:104C90008C018091BC0087FF11C02091B900287F52
:104CA00081E090E0283211F490E080E091958195C8
:104CB0009109DF91CF911F910F910895CF3FDC07AC
:104CC00041F3C8010E944411C817D90710F78EEFAD
:104CD0009FEFEFCFB0E0A0E0EFE6F6E282C2782EE1
:104CE0005B016A0189010E9438114C01C1E0D0E0EA
:104CF0000431110550F0C5E0D0E00F3F100729F056
:104D0000C80164E170E054D2EB01BE01872D64DF7D
:104D10007C0197FF09C00F3F1007B9F3C4010E943F
:104D200044110817190788F7E501CA0CDB1CCC15DC
:104D3000DD0511F0F7FE08C084E98093BC00C701CF
:104D4000CDB7DEB7EDE069C2B801899195DF7C018E
:104D5000EECFB0E0A0E0EEEAF6E243C2782E5B01CF
:104D60006A0189010E9438114C01C1E0D0E0043190
:104D7000110550F0C5E0D0E00F3F100729F0C80141
:104D800064E170E015D2EB01BE01872D25DF7C01C7
:104D900097FF09C00F3F1007B9F3C4010E944411E7
:104DA0000817190788F7E501CA0CDB1CCC15DD05CF
:104DB00011F0F7FE08C084E98093BC00C701CDB7AD
:104DC000DEB7EDE02AC2FE018491B80155DF7C0117
:104DD0002196ECCFB0E0A0E0EFEEF6E201C2682E43
:104DE000762E5A0169010E9438114C01C1E0D0E0D1
:104DF0000431110550F0C5E0D0E00F3F100729F055
:104E0000C80164E170E0D4D1EB01BE01862DE4DE7F
:104E10007C0197FF1BC00F3F1007B9F3C4010E942C
:104E200044110817190788F784E98093BC00C7016B
:104E3000CDB7DEB7EEE0F0C1B80189911DDF7C018E
:104E4000CC16DD0689F3F7FEF7CFEECFB801872D3C
:104E500013DF7C01E501CA0CDB1CF2CF8EE14A9B1B
:104E600002C08150E1F74A9BFECF08955A9880E234
:104E70008A95F1F75A9A0895FC013BE03A95F1F7CB
:104E800098E020E080E031E040E14A95F1F7880FBA
:104E90004A9B02C08160232742E04A95F1F7000057
:104EA00040E14A95F1F7915079F790E19A95F1F741
:104EB00099B132E03A95F1F7000040E14A95F1F7F7
:104EC00092FB992790F992272081920F9083089561
:104ED000A1E0B0E0EDE6F7E28BC119828C017C0124
:104EE000E60EF11C0E151F0539F481E09981911130
:104EF00080E02196E6E098C1B1DFCE010196BCDFEB
:104F0000F80181938F01EECF529A5A9A08955298E0
:104F10005A9AEA9AE9E6F0E080818F7C80830895CE
:104F20006150770B91E001C0990F6A95EAF720E094
:104F300031E0911108C0222391F05A9A80E28A95BB
:104F4000F1F75A980895492F482339F05A9A2327A0
:104F500040E24A95F1F79695ECCF5A98F9CF5A98D6
:104F6000EDCFFF920F931F93CF93DF93EC018C0152
:104F7000060F111DC017D10721F4CDB7DEB7E5E04C
:104F800054C1F99073DF68E08F2DCADFF3CF1F9211
:104F90000F920FB60F9211240F931F932F933F93ED
:104FA0004F935F936F937F938F939F93AF93BF9331
:104FB000EF93FF93CF93DF931F92CDB7DEB71982A4
:104FC0004DDFCE01019658DF082F06950695069510
:104FD000982F92959570202F2570920F292F23706E
:104FE00096959695920F877089135BC08981811180
:104FF00058C0083008F055C080E18A95F1F75A9AF8
:10500000529A82E08A95F1F700C05A9888E0089F8A
:1050100080011124D801A050BF4F1696ED91FC914C
:1050200017973097A9F06091990170919A011496A1
:105030002D913C911597260F371F11968D919C91BC
:105040001297680F791F13964C9113978C910995BD
:10505000F801E050FF4F6381662349F08091990188
:1050600090919A0124813581820F931F7ADFFEDEB1
:1050700080E18A95F1F75A9852985A9A80E18A9578
:10508000F1F7F801E050FF4F6081662349F080910D
:10509000990190919A0121813281820F931F18DF2B
:1050A000DDDE0F90DF91CF91FF91EF91BF91AF9136
:1050B0009F918F917F916F915F914F913F912F9130
:1050C0001F910F910F900FBE0F901F9018950F9387
:1050D0001F93CF93DF93883091050CF04AC0EC0109
:1050E000F894529A5A9885E08A95F1F700009C2F1F
:1050F000969595708C2F8570980F892F8370969553
:10510000969523E0CC0FDD1F2A95E1F7980F8E01CD
:10511000092BACDE00C068E0802F02DF80E18A95B9
:10512000F1F752985A9A4A9B1DC087E090E04A993D
:105130001BC0FE01E050FF4F63816623F1F08091B8
:10514000990190919A0124813581820F931FC0DECD
:10515000811113C0529A5A9A7894DF91CF911F917E
:105160000F91089500C0DFCF019729F4529A5A9AFF
:10517000789480E0F2CF00C0DACF70DE80E28A95CA
:10518000F1F75A98529A80E18A95F1F7C050DF4FB3
:105190006881662349F08091990190919A01298153
:1051A0003A81820F931FDDDE61DE789481E0D5CFF6
:1051B000AA1BBB1B51E107C0AA1FBB1FA617B7073D
:1051C00010F0A61BB70B881F991F5A95A9F7809559
:1051D0009095BC01CD0108952F923F924F925F921E
:1051E0006F927F928F929F92AF92BF92CF92DF92F7
:1051F000EF92FF920F931F93CF93DF93CDB7DEB75C
:10520000CA1BDB0B0FB6F894DEBF0FBECDBF0994EF
:105210002A88398848885F846E847D848C849B8446
:10522000AA84B984C884DF80EE80FD800C811B8154
:10523000AA81B981CE0FD11D0FB6F894DEBF0FBE83
:10524000CDBFED010895FB01DC0102C005900D9278
:1052500041505040D8F70895F999FECF92BD81BDD5
:10526000F89A992780B50895A8E1B0E042E050E0AF
:1052700020C0262FF999FECF92BD81BDF89A0197E3
:1052800000B4021639F01FBA20BD0FB6F894FA9A8E
:10529000F99A0FBE08950396272FECDFEADF252F3A
:1052A000E9DF242FE7CF0196272FE4DFE2CFDC01EF
:1052B000CB01FC01F999FECF06C0F2BDE1BDF89A21
:1052C000319600B40D9241505040B8F70895991BA3
:1052D00079E004C0991F961708F0961B881F7A95ED
:1052E000C9F78095089597FB072E16F4009406D011
:1052F00077FD08D05DDF07FC05D03EF490958195E1
:105300009F4F0895709561957F4F0895EE0FFF1F91
:105310000590F491E02D0994FB01DC0104C08D910E
:105320000190801921F441505040C8F7881B990B17
:105330000895FB01DC0102C001900D9241505040E4
:08534000D8F70895F894FFCF9F
:10534800000000010000000000000005010000004E
:105358000506000000000000000000010B0000002E
:10536800000000080C0000000000000000006808B1
:10537800041400000000000001D306670C620C5DF5
:105388000C580C0000000000000000DC161D0C008A
:105398000000000021007F220003F5F40000010056
:1053A800818283E200E900EA00B500B600B700CDCB
:1053B800008301CC008A0192019401210223022476
:1053C800022502260227022A02B300B4006F0070E9
:1053D800009F01CB019F02A00259026697C634358F
:1053E800F6F73133323600FF0100010000FFFF00FD
:0E53F80000010001FF00000810181810080046
:00000001FF
